{
  "_format": "hh-sol-artifact-1",
  "contractName": "IPROMISEContract",
  "sourceName": "contracts/IPROMISEContract.sol",
  "abi": [
    {
      "inputs": [],
      "stateMutability": "nonpayable",
      "type": "constructor"
    },
    {
      "anonymous": false,
      "inputs": [
        {
          "indexed": true,
          "internalType": "address",
          "name": "charityAddress",
          "type": "address"
        }
      ],
      "name": "CharityApproved",
      "type": "event"
    },
    {
      "anonymous": false,
      "inputs": [
        {
          "indexed": true,
          "internalType": "address",
          "name": "charityAddress",
          "type": "address"
        }
      ],
      "name": "CharityRemoved",
      "type": "event"
    },
    {
      "anonymous": false,
      "inputs": [
        {
          "indexed": true,
          "internalType": "uint256",
          "name": "commitmentId",
          "type": "uint256"
        },
        {
          "indexed": true,
          "internalType": "address",
          "name": "owner",
          "type": "address"
        }
      ],
      "name": "CommitmentCanceled",
      "type": "event"
    },
    {
      "anonymous": false,
      "inputs": [
        {
          "indexed": true,
          "internalType": "uint256",
          "name": "commitmentId",
          "type": "uint256"
        },
        {
          "indexed": true,
          "internalType": "address",
          "name": "owner",
          "type": "address"
        },
        {
          "indexed": false,
          "internalType": "uint256",
          "name": "stake",
          "type": "uint256"
        }
      ],
      "name": "CommitmentCompleted",
      "type": "event"
    },
    {
      "anonymous": false,
      "inputs": [
        {
          "indexed": true,
          "internalType": "uint256",
          "name": "commitmentId",
          "type": "uint256"
        },
        {
          "indexed": true,
          "internalType": "address",
          "name": "owner",
          "type": "address"
        },
        {
          "indexed": false,
          "internalType": "string",
          "name": "title",
          "type": "string"
        },
        {
          "indexed": false,
          "internalType": "uint256",
          "name": "stake",
          "type": "uint256"
        },
        {
          "indexed": false,
          "internalType": "uint256",
          "name": "deadline",
          "type": "uint256"
        }
      ],
      "name": "CommitmentCreated",
      "type": "event"
    },
    {
      "anonymous": false,
      "inputs": [
        {
          "indexed": true,
          "internalType": "uint256",
          "name": "commitmentId",
          "type": "uint256"
        },
        {
          "indexed": true,
          "internalType": "address",
          "name": "owner",
          "type": "address"
        },
        {
          "indexed": true,
          "internalType": "address",
          "name": "charity",
          "type": "address"
        },
        {
          "indexed": false,
          "internalType": "uint256",
          "name": "stake",
          "type": "uint256"
        }
      ],
      "name": "CommitmentFailed",
      "type": "event"
    },
    {
      "anonymous": false,
      "inputs": [
        {
          "indexed": false,
          "internalType": "uint256",
          "name": "newFeePercentage",
          "type": "uint256"
        }
      ],
      "name": "PlatformFeeUpdated",
      "type": "event"
    },
    {
      "anonymous": false,
      "inputs": [
        {
          "indexed": true,
          "internalType": "uint256",
          "name": "commitmentId",
          "type": "uint256"
        },
        {
          "indexed": true,
          "internalType": "address",
          "name": "validator",
          "type": "address"
        },
        {
          "indexed": false,
          "internalType": "bool",
          "name": "approved",
          "type": "bool"
        }
      ],
      "name": "ValidationSubmitted",
      "type": "event"
    },
    {
      "anonymous": false,
      "inputs": [
        {
          "indexed": true,
          "internalType": "uint256",
          "name": "commitmentId",
          "type": "uint256"
        },
        {
          "indexed": true,
          "internalType": "address",
          "name": "validator",
          "type": "address"
        }
      ],
      "name": "ValidatorAssigned",
      "type": "event"
    },
    {
      "inputs": [
        {
          "internalType": "address",
          "name": "charityAddress",
          "type": "address"
        }
      ],
      "name": "approveCharity",
      "outputs": [],
      "stateMutability": "nonpayable",
      "type": "function"
    },
    {
      "inputs": [
        {
          "internalType": "uint256",
          "name": "commitmentId",
          "type": "uint256"
        },
        {
          "internalType": "address",
          "name": "validator",
          "type": "address"
        }
      ],
      "name": "assignValidator",
      "outputs": [],
      "stateMutability": "nonpayable",
      "type": "function"
    },
    {
      "inputs": [
        {
          "internalType": "uint256",
          "name": "commitmentId",
          "type": "uint256"
        }
      ],
      "name": "cancelCommitment",
      "outputs": [],
      "stateMutability": "nonpayable",
      "type": "function"
    },
    {
      "inputs": [
        {
          "internalType": "string",
          "name": "title",
          "type": "string"
        },
        {
          "internalType": "string",
          "name": "description",
          "type": "string"
        },
        {
          "internalType": "uint256",
          "name": "deadline",
          "type": "uint256"
        },
        {
          "internalType": "address",
          "name": "charityAddress",
          "type": "address"
        }
      ],
      "name": "createCommitment",
      "outputs": [],
      "stateMutability": "payable",
      "type": "function"
    },
    {
      "inputs": [
        {
          "internalType": "uint256",
          "name": "commitmentId",
          "type": "uint256"
        }
      ],
      "name": "forceCompleteExpiredCommitment",
      "outputs": [],
      "stateMutability": "nonpayable",
      "type": "function"
    },
    {
      "inputs": [
        {
          "internalType": "uint256",
          "name": "commitmentId",
          "type": "uint256"
        }
      ],
      "name": "getCommitmentBasicInfo",
      "outputs": [
        {
          "components": [
            {
              "internalType": "uint256",
              "name": "id",
              "type": "uint256"
            },
            {
              "internalType": "address",
              "name": "owner",
              "type": "address"
            },
            {
              "internalType": "string",
              "name": "title",
              "type": "string"
            },
            {
              "internalType": "string",
              "name": "description",
              "type": "string"
            },
            {
              "internalType": "uint256",
              "name": "stake",
              "type": "uint256"
            },
            {
              "internalType": "uint256",
              "name": "deadline",
              "type": "uint256"
            },
            {
              "internalType": "address",
              "name": "charityAddress",
              "type": "address"
            }
          ],
          "internalType": "struct IPROMISEContract.CommitmentBasicInfo",
          "name": "",
          "type": "tuple"
        }
      ],
      "stateMutability": "view",
      "type": "function"
    },
    {
      "inputs": [
        {
          "internalType": "uint256",
          "name": "commitmentId",
          "type": "uint256"
        }
      ],
      "name": "getCommitmentStatusInfo",
      "outputs": [
        {
          "components": [
            {
              "internalType": "enum IPROMISEContract.CommitmentStatus",
              "name": "status",
              "type": "uint8"
            },
            {
              "internalType": "address",
              "name": "validator",
              "type": "address"
            },
            {
              "internalType": "bool",
              "name": "hasValidated",
              "type": "bool"
            },
            {
              "internalType": "bool",
              "name": "approvedCompletion",
              "type": "bool"
            },
            {
              "internalType": "uint256",
              "name": "createdAt",
              "type": "uint256"
            }
          ],
          "internalType": "struct IPROMISEContract.CommitmentStatusInfo",
          "name": "",
          "type": "tuple"
        }
      ],
      "stateMutability": "view",
      "type": "function"
    },
    {
      "inputs": [],
      "name": "getOwner",
      "outputs": [
        {
          "internalType": "address",
          "name": "",
          "type": "address"
        }
      ],
      "stateMutability": "view",
      "type": "function"
    },
    {
      "inputs": [],
      "name": "getPlatformFeePercentage",
      "outputs": [
        {
          "internalType": "uint256",
          "name": "",
          "type": "uint256"
        }
      ],
      "stateMutability": "view",
      "type": "function"
    },
    {
      "inputs": [
        {
          "internalType": "address",
          "name": "user",
          "type": "address"
        }
      ],
      "name": "getUserCommitments",
      "outputs": [
        {
          "internalType": "uint256[]",
          "name": "",
          "type": "uint256[]"
        }
      ],
      "stateMutability": "view",
      "type": "function"
    },
    {
      "inputs": [
        {
          "internalType": "address",
          "name": "charityAddress",
          "type": "address"
        }
      ],
      "name": "isCharityApproved",
      "outputs": [
        {
          "internalType": "bool",
          "name": "",
          "type": "bool"
        }
      ],
      "stateMutability": "view",
      "type": "function"
    },
    {
      "inputs": [
        {
          "internalType": "address",
          "name": "charityAddress",
          "type": "address"
        }
      ],
      "name": "removeCharity",
      "outputs": [],
      "stateMutability": "nonpayable",
      "type": "function"
    },
    {
      "inputs": [
        {
          "internalType": "uint256",
          "name": "newFeePercentage",
          "type": "uint256"
        }
      ],
      "name": "updatePlatformFee",
      "outputs": [],
      "stateMutability": "nonpayable",
      "type": "function"
    },
    {
      "inputs": [
        {
          "internalType": "uint256",
          "name": "commitmentId",
          "type": "uint256"
        },
        {
          "internalType": "bool",
          "name": "approved",
          "type": "bool"
        }
      ],
      "name": "validateCommitment",
      "outputs": [],
      "stateMutability": "nonpayable",
      "type": "function"
    },
    {
      "inputs": [],
      "name": "withdrawPlatformFees",
      "outputs": [],
      "stateMutability": "nonpayable",
      "type": "function"
    }
  ],
  "bytecode": "0x6080604052348015600f57600080fd5b50600080546001600160a01b03191633179055600180556101f460055561204a8061003b6000396000f3fe6080604052600436106100e85760003560e01c80639caf253f1161008a578063b6eb2e8511610059578063b6eb2e85146102a1578063ce6731f4146102ce578063d0b7830b146102ee578063e92900c91461030357600080fd5b80639caf253f146101f8578063a1a260b014610241578063aa0b598814610261578063abefe5911461028157600080fd5b80634a818aa9116100c65780634a818aa9146101655780637a3a27ea14610192578063840a1ff4146101b0578063893d20e8146101d057600080fd5b806331091d7a146100ed5780634581058314610123578063486d5e5414610145575b600080fd5b3480156100f957600080fd5b5061010d6101083660046119b6565b610316565b60405161011a91906119d8565b60405180910390f35b34801561012f57600080fd5b5061014361013e3660046119b6565b610382565b005b34801561015157600080fd5b50610143610160366004611a1b565b6104c0565b34801561017157600080fd5b50610185610180366004611a47565b6106de565b60405161011a9190611aa6565b34801561019e57600080fd5b5060055460405190815260200161011a565b3480156101bc57600080fd5b506101436101cb366004611a47565b6108e3565b3480156101dc57600080fd5b506000546040516001600160a01b03909116815260200161011a565b34801561020457600080fd5b506102316102133660046119b6565b6001600160a01b031660009081526004602052604090205460ff1690565b604051901515815260200161011a565b34801561024d57600080fd5b5061014361025c366004611b2f565b610ad7565b34801561026d57600080fd5b5061014361027c366004611a47565b610eee565b34801561028d57600080fd5b5061014361029c3660046119b6565b610f9d565b3480156102ad57600080fd5b506102c16102bc366004611a47565b61106f565b60405161011a9190611b7a565b3480156102da57600080fd5b506101436102e9366004611a47565b611149565b3480156102fa57600080fd5b50610143611519565b610143610311366004611c82565b6115fe565b6001600160a01b03811660009081526003602090815260409182902080548351818402810184019094528084526060939283018282801561037657602002820191906000526020600020905b815481526020019060010190808311610362575b50505050509050919050565b6000546001600160a01b031633146103b55760405162461bcd60e51b81526004016103ac90611d05565b60405180910390fd5b6001600160a01b03811661040b5760405162461bcd60e51b815260206004820152601760248201527f496e76616c69642063686172697479206164647265737300000000000000000060448201526064016103ac565b6001600160a01b03811660009081526004602052604090205460ff16156104745760405162461bcd60e51b815260206004820152601860248201527f4368617269747920616c726561647920617070726f766564000000000000000060448201526064016103ac565b6001600160a01b038116600081815260046020526040808220805460ff19166001179055517f28675749c11847be30a3b822f80f286058475c5f4977dcb99798b5b0ff2cbe5e9190a250565b8160015481106104e25760405162461bcd60e51b81526004016103ac90611d46565b60008381526002602052604090206001015483906001600160a01b0316331461051d5760405162461bcd60e51b81526004016103ac90611d7d565b8360008082815260026020526040902060060154600160a01b900460ff16600381111561054c5761054c611b64565b146105695760405162461bcd60e51b81526004016103ac90611dc9565b6001600160a01b0384166105bf5760405162461bcd60e51b815260206004820152601960248201527f496e76616c69642076616c696461746f7220616464726573730000000000000060448201526064016103ac565b336001600160a01b038516036106175760405162461bcd60e51b815260206004820152601f60248201527f43616e6e6f742061737369676e2073656c662061732076616c696461746f720060448201526064016103ac565b6000858152600260205260409020600701546001600160a01b03161561067f5760405162461bcd60e51b815260206004820152601a60248201527f56616c696461746f7220616c72656164792061737369676e656400000000000060448201526064016103ac565b60008581526002602052604080822060070180546001600160a01b0319166001600160a01b0388169081179091559051909187917f74c722a7077ba48f1c4a1df3ad9df69eda5ffb9518fedba9bad9596305b8b95e9190a35050505050565b6107306040518060e001604052806000815260200160006001600160a01b031681526020016060815260200160608152602001600081526020016000815260200160006001600160a01b031681525090565b8160015481106107525760405162461bcd60e51b81526004016103ac90611d46565b600083815260026020818152604092839020835160e0810185528154815260018201546001600160a01b0316928101929092529182018054929391929183019161079b90611e00565b80601f01602080910402602001604051908101604052809291908181526020018280546107c790611e00565b80156108145780601f106107e957610100808354040283529160200191610814565b820191906000526020600020905b8154815290600101906020018083116107f757829003601f168201915b5050505050815260200182600301805461082d90611e00565b80601f016020809104026020016040519081016040528092919081815260200182805461085990611e00565b80156108a65780601f1061087b576101008083540402835291602001916108a6565b820191906000526020600020905b81548152906001019060200180831161088957829003601f168201915b505050918352505060048301546020820152600583015460408201526006909201546001600160a01b031660609092019190915291505b50919050565b8060015481106109055760405162461bcd60e51b81526004016103ac90611d46565b60008281526002602052604090206001015482906001600160a01b031633146109405760405162461bcd60e51b81526004016103ac90611d7d565b8260008082815260026020526040902060060154600160a01b900460ff16600381111561096f5761096f611b64565b1461098c5760405162461bcd60e51b81526004016103ac90611dc9565b600084815260026020526040902060078101546001600160a01b031615610a055760405162461bcd60e51b815260206004820152602760248201527f43616e6e6f742063616e63656c3a2076616c696461746f7220686173206265656044820152661b88185919195960ca1b60648201526084016103ac565b60068101805460ff60a01b1916600360a01b179055600181015460048201546040516000926001600160a01b031691908381818185875af1925050503d8060008114610a6d576040519150601f19603f3d011682016040523d82523d6000602084013e610a72565b606091505b5050905080610a935760405162461bcd60e51b81526004016103ac90611e34565b60018201546040516001600160a01b039091169087907f44f058bd6bb0d550288bf6f6c40797fb8725dda76530bc30a589d53b6b43621690600090a3505050505050565b816001548110610af95760405162461bcd60e51b81526004016103ac90611d46565b60008381526002602052604090206007015483906001600160a01b03163314610b7b5760405162461bcd60e51b815260206004820152602e60248201527f4f6e6c792061737369676e65642076616c696461746f722063616e2063616c6c60448201526d103a3434b990333ab731ba34b7b760911b60648201526084016103ac565b8360008082815260026020526040902060060154600160a01b900460ff166003811115610baa57610baa611b64565b14610bc75760405162461bcd60e51b81526004016103ac90611dc9565b60008581526002602052604090206007810154600160a01b900460ff1615610c255760405162461bcd60e51b8152602060048201526011602482015270105b1c9958591e481d985b1a59185d1959607a1b60448201526064016103ac565b60078101805486158015600160a81b0261ffff60a01b1990921691909117600160a01b17909155610d645760068101805460ff60a01b1916600160a01b179055600554600482015460009161271091610c7e9190611e76565b610c889190611e93565b90506000818360040154610c9c9190611eb5565b60018401546040519192506000916001600160a01b039091169083908381818185875af1925050503d8060008114610cf0576040519150601f19603f3d011682016040523d82523d6000602084013e610cf5565b606091505b5050905080610d165760405162461bcd60e51b81526004016103ac90611e34565b60018401546040518381526001600160a01b03909116908a907f33f3ba6ea8021e86f3d13b1094665a06a7ece080a19c828f7edfc3c990f9a7719060200160405180910390a3505050610ead565b60068101805460ff60a01b1916600160a11b179055600554600482015460009161271091610d929190611e76565b610d9c9190611e93565b90506000818360040154610db09190611eb5565b60068401546040519192506000916001600160a01b039091169083908381818185875af1925050503d8060008114610e04576040519150601f19603f3d011682016040523d82523d6000602084013e610e09565b606091505b5050905080610e5a5760405162461bcd60e51b815260206004820152601d60248201527f4661696c656420746f2073656e642045544820746f206368617269747900000060448201526064016103ac565b600684015460018501546040518481526001600160a01b0392831692909116908b907f72b2059576afa7cbc46350c2722a1aa1b7b8f3eee038d3ed23e65f4a4c745d7e9060200160405180910390a45050505b6040518515158152339087907f1e87b111b73f13e8f19487ba27f61c045601a8b64550449541437b5ff151083b9060200160405180910390a3505050505050565b6000546001600160a01b03163314610f185760405162461bcd60e51b81526004016103ac90611d05565b6103e8811115610f625760405162461bcd60e51b81526020600482015260156024820152744665652063616e6e6f74206578636565642031302560581b60448201526064016103ac565b60058190556040518181527f45610d581145924dd7090a5017e5f2b1d6f42213bb2e95707ff86846bbfcb1ca9060200160405180910390a150565b6000546001600160a01b03163314610fc75760405162461bcd60e51b81526004016103ac90611d05565b6001600160a01b03811660009081526004602052604090205460ff166110265760405162461bcd60e51b815260206004820152601460248201527310da185c9a5d1e481b9bdd08185c1c1c9bdd995960621b60448201526064016103ac565b6001600160a01b038116600081815260046020526040808220805460ff19169055517f7db8df158d85e9475e8dd97a5e3e193c67dc6d977d2fc4f7321049b6c0b70e939190a250565b6040805160a0810182526000808252602082018190529181018290526060810182905260808101919091528160015481106110bc5760405162461bcd60e51b81526004016103ac90611d46565b60008381526002602052604090819020815160a0810190925260068101549091908190600160a01b900460ff1660038111156110fa576110fa611b64565b815260078301546001600160a01b038116602083015260ff600160a01b8204811615156040840152600160a81b9091041615156060820152600890920154608090920191909152915050919050565b80600154811061116b5760405162461bcd60e51b81526004016103ac90611d46565b8160008082815260026020526040902060060154600160a01b900460ff16600381111561119a5761119a611b64565b146111b75760405162461bcd60e51b81526004016103ac90611dc9565b6000838152600260205260409020600581015442116112185760405162461bcd60e51b815260206004820152601a60248201527f436f6d6d69746d656e74206e6f7420796574206578706972656400000000000060448201526064016103ac565b6007810154600160a01b900460ff16156112745760405162461bcd60e51b815260206004820152601c60248201527f436f6d6d69746d656e7420616c72656164792076616c6964617465640000000060448201526064016103ac565b60078101546001600160a01b0316156113b25760068101805460ff60a01b1916600160a01b17905560078101805461ffff60a01b191661010160a01b1790556005546004820154600091612710916112cc9190611e76565b6112d69190611e93565b905060008183600401546112ea9190611eb5565b60018401546040519192506000916001600160a01b039091169083908381818185875af1925050503d806000811461133e576040519150601f19603f3d011682016040523d82523d6000602084013e611343565b606091505b50509050806113645760405162461bcd60e51b81526004016103ac90611e34565b60018401546040518381526001600160a01b039091169088907f33f3ba6ea8021e86f3d13b1094665a06a7ece080a19c828f7edfc3c990f9a7719060200160405180910390a3505050611513565b600681018054600160a11b60ff60a01b1990911617905560078101805461ffff60a01b1916600160a01b1790556005546004820154600091612710916113f89190611e76565b6114029190611e93565b905060008183600401546114169190611eb5565b60068401546040519192506000916001600160a01b039091169083908381818185875af1925050503d806000811461146a576040519150601f19603f3d011682016040523d82523d6000602084013e61146f565b606091505b50509050806114c05760405162461bcd60e51b815260206004820152601d60248201527f4661696c656420746f2073656e642045544820746f206368617269747900000060448201526064016103ac565b600684015460018501546040518481526001600160a01b03928316929091169089907f72b2059576afa7cbc46350c2722a1aa1b7b8f3eee038d3ed23e65f4a4c745d7e9060200160405180910390a45050505b50505050565b6000546001600160a01b031633146115435760405162461bcd60e51b81526004016103ac90611d05565b47806115875760405162461bcd60e51b81526020600482015260136024820152724e6f206665657320746f20776974686472617760681b60448201526064016103ac565b600080546040516001600160a01b039091169083908381818185875af1925050503d80600081146115d4576040519150601f19603f3d011682016040523d82523d6000602084013e6115d9565b606091505b50509050806115fa5760405162461bcd60e51b81526004016103ac90611e34565b5050565b60008451116116475760405162461bcd60e51b81526020600482015260156024820152745469746c652063616e6e6f7420626520656d70747960581b60448201526064016103ac565b60008351116116985760405162461bcd60e51b815260206004820152601b60248201527f4465736372697074696f6e2063616e6e6f7420626520656d707479000000000060448201526064016103ac565b4282116116e75760405162461bcd60e51b815260206004820152601e60248201527f446561646c696e65206d75737420626520696e2074686520667574757265000060448201526064016103ac565b6000341161172d5760405162461bcd60e51b815260206004820152601360248201527209aeae6e840e6e8c2d6ca40e6dedaca408aa89606b1b60448201526064016103ac565b6001600160a01b03811660009081526004602052604090205460ff166117955760405162461bcd60e51b815260206004820152601c60248201527f436861726974792061646472657373206e6f7420617070726f7665640000000060448201526064016103ac565b60018054600091826117a683611ec8565b9091555060408051610180810182528281523360208083019182528284018a8152606084018a905234608085015260a084018990526001600160a01b0388811660c0860152600060e0860181905261010086018190526101208601819052610140860181905242610160870152878152600293849052959095208451815592516001840180546001600160a01b03191691909616179094559251939450909290918201906118549082611f30565b50606082015160038201906118699082611f30565b506080820151600482015560a0820151600582015560c08201516006820180546001600160a01b039092166001600160a01b031983168117825560e0850151926001600160a81b03191617600160a01b8360038111156118cb576118cb611b64565b02179055506101008201516007820180546101208501516101408601511515600160a81b0260ff60a81b19911515600160a01b026001600160a81b03199093166001600160a01b0390951694909417919091171691909117905561016090910151600890910155336000818152600360209081526040808320805460018101825590845291909220018390555182907f26cc583dd40752423e093d7bab55bd760acb2f189b7f5b8a4c8489f0135043679061198b90899034908990611fef565b60405180910390a35050505050565b80356001600160a01b03811681146119b157600080fd5b919050565b6000602082840312156119c857600080fd5b6119d18261199a565b9392505050565b602080825282518282018190526000918401906040840190835b81811015611a105783518352602093840193909201916001016119f2565b509095945050505050565b60008060408385031215611a2e57600080fd5b82359150611a3e6020840161199a565b90509250929050565b600060208284031215611a5957600080fd5b5035919050565b6000815180845260005b81811015611a8657602081850181015186830182015201611a6a565b506000602082860101526020601f19601f83011685010191505092915050565b602081528151602082015260018060a01b0360208301511660408201526000604083015160e06060840152611adf610100840182611a60565b90506060840151601f19848303016080850152611afc8282611a60565b915050608084015160a084015260a084015160c084015260018060a01b0360c08501511660e08401528091505092915050565b60008060408385031215611b4257600080fd5b8235915060208301358015158114611b5957600080fd5b809150509250929050565b634e487b7160e01b600052602160045260246000fd5b815160a082019060048110611b9f57634e487b7160e01b600052602160045260246000fd5b82526020838101516001600160a01b031690830152604080840151151590830152606080840151151590830152608092830151929091019190915290565b634e487b7160e01b600052604160045260246000fd5b600082601f830112611c0457600080fd5b813567ffffffffffffffff811115611c1e57611c1e611bdd565b604051601f8201601f19908116603f0116810167ffffffffffffffff81118282101715611c4d57611c4d611bdd565b604052818152838201602001851015611c6557600080fd5b816020850160208301376000918101602001919091529392505050565b60008060008060808587031215611c9857600080fd5b843567ffffffffffffffff811115611caf57600080fd5b611cbb87828801611bf3565b945050602085013567ffffffffffffffff811115611cd857600080fd5b611ce487828801611bf3565b93505060408501359150611cfa6060860161199a565b905092959194509250565b60208082526021908201527f4f6e6c79206f776e65722063616e2063616c6c20746869732066756e6374696f6040820152603760f91b606082015260800190565b60208082526019908201527f436f6d6d69746d656e7420646f6573206e6f7420657869737400000000000000604082015260600190565b6020808252602c908201527f4f6e6c7920636f6d6d69746d656e74206f776e65722063616e2063616c6c207460408201526b3434b990333ab731ba34b7b760a11b606082015260800190565b60208082526018908201527f436f6d6d69746d656e74206973206e6f74206163746976650000000000000000604082015260600190565b600181811c90821680611e1457607f821691505b6020821081036108dd57634e487b7160e01b600052602260045260246000fd5b60208082526012908201527108cc2d2d8cac840e8de40e6cadcc8408aa8960731b604082015260600190565b634e487b7160e01b600052601160045260246000fd5b8082028115828204841417611e8d57611e8d611e60565b92915050565b600082611eb057634e487b7160e01b600052601260045260246000fd5b500490565b81810381811115611e8d57611e8d611e60565b600060018201611eda57611eda611e60565b5060010190565b601f821115611f2b57806000526020600020601f840160051c81016020851015611f085750805b601f840160051c820191505b81811015611f285760008155600101611f14565b50505b505050565b815167ffffffffffffffff811115611f4a57611f4a611bdd565b611f5e81611f588454611e00565b84611ee1565b6020601f821160018114611f925760008315611f7a5750848201515b600019600385901b1c1916600184901b178455611f28565b600084815260208120601f198516915b82811015611fc25787850151825560209485019460019092019101611fa2565b5084821015611fe05786840151600019600387901b60f8161c191681555b50505050600190811b01905550565b6060815260006120026060830186611a60565b6020830194909452506040015291905056fea26469706673582212200121c8627b01a8c30c8fb20dbf5d88cc2460f06527e142a4ed1b7722db3f81b664736f6c634300081c0033",
  "linkReferences": {},
  "deployedLinkReferences": {}
}